:020000040800F2
:1000000000000620A9080008650700086907000825
:100010006D07000871070008750700080000000060
:100020000000000000000000000000007907000848
:100030007D07000800000000810700088507000810
:10004000F1080008F1080008F1080008F1080008AC
:10005000F1080008F1080008F1080008F10800089C
:10006000F1080008F1080008F1080008F10800088C
:10007000F1080008F1080008F1080008F10800087C
:10008000F1080008F1080008F1080008F10800086C
:10009000F1080008F1080008F1080008F10800085C
:1000A000F1080008F1080008F1080008F10800084C
:1000B000F1080008F1080008F1080008F10800083C
:1000C000F1080008F1080008F1080008F10800082C
:1000D000F1080008F1080008F1080008F10800081C
:1000E000F1080008F1080008F1080008F10800080C
:1000F000F1080008F1080008F1080008F1080008FC
:10010000F1080008F1080008F1080008F1080008EB
:10011000F1080008F1080008F1080008F1080008DB
:10012000F1080008F1080008F1080008F1080008CB
:10013000F1080008F1080008F1080008F1080008BB
:10014000F1080008F1080008F1080008F1080008AB
:10015000F1080008F108000800000000F10800089C
:10016000F1080008F108000800000000000000008D
:10017000F1080008F1080008F1080008000000007C
:1001800000000000F1080008F1080008F10800086C
:10019000F10800080000000000000000000000005E
:1001A000000000000000000000000000F10800084E
:1001B000F108000800000000F1080008000000003D
:1001C000000000000000000000000000000000002F
:1001D0000000000000000000F1080008F10800081D
:1001E000F1080008F1080008F1080008F10800080B
:1001F000F1080008F1080008F1080008F1080008FB
:0C020000F1080008F1080008F1080008EF
:10020C0010B5054C237833B9044B13B10448AFF344
:10021C0000800123237010BD24000020000000008A
:10022C00F00B000808B5034B1BB103490348AFF3AF
:10023C00008008BD0000000028000020F00B000822
:10024C0053B94AB9002908BF00281CBF4FF0FF3131
:10025C004FF0FF3000F074B9ADF1080C6DE904CE2D
:10026C0000F006F8DDF804E0DDE9022304B0704785
:10027C002DE9F047089D04468E46002B4DD18A424D
:10028C00944669D9B2FA82F252B101FA02F3C2F180
:10029C00200120FA01F10CFA02FC41EA030E944011
:1002AC004FEA1C48210CBEFBF8F61FFA8CF708FB32
:1002BC0016E341EA034306FB07F199420AD91CEB0A
:1002CC00030306F1FF3080F01F81994240F21C813C
:1002DC00023E63445B1AA4B2B3FBF8F008FB103384
:1002EC0044EA034400FB07F7A7420AD91CEB0404B9
:1002FC0000F1FF3380F00A81A74240F20781644489
:10030C00023840EA0640E41B00261DB1D44000230D
:10031C00C5E900433146BDE8F0878B4209D9002D71
:10032C0000F0EF800026C5E9000130463146BDE8FB
:10033C00F087B3FA83F6002E4AD18B4202D3824265
:10034C0000F2F980841A61EB030301209E46002D14
:10035C00E0D0C5E9004EDDE702B9FFDEB2FA82F269
:10036C00002A40F09280A1EB0C014FEA1C471FFAC7
:10037C008CFE0126200CB1FBF7F307FB131140EAAE
:10038C0001410EFB03F0884208D91CEB010103F17B
:10039C00FF3802D2884200F2CB804346091AA4B23D
:1003AC00B1FBF7F007FB101144EA01440EFB00FE11
:1003BC00A64508D91CEB040400F1FF3102D2A64576
:1003CC0000F2BB800846A4EB0E0440EA03409CE715
:1003DC00C6F12007B34022FA07FC4CEA030C20FAC2
:1003EC0007F401FA06F31C43F9404FEA1C4900FAE2
:1003FC0006F3B1FBF9F8200C1FFA8CFE09FB18115F
:10040C0040EA014108FB0EF0884202FA06F20BD9D1
:10041C001CEB010108F1FF3A80F08880884240F221
:10042C008580A8F102086144091AA4B2B1FBF9F065
:10043C0009FB101144EA014100FB0EFE8E4508D960
:10044C001CEB010100F1FF346CD28E456AD90238E5
:10045C00614440EA0840A0FB0294A1EB0E01A142CA
:10046C00C846A64656D353D05DB1B3EB080261EB38
:10047C000E0101FA07F722FA06F3F1401F43C5E912
:10048C00007100263146BDE8F087C2F12003D84048
:10049C000CFA02FC21FA03F3914001434FEA1C478A
:1004AC001FFA8CFEB3FBF7F007FB10360B0C43EA7C
:1004BC00064300FB0EF69E4204FA02F408D91CEB2C
:1004CC00030300F1FF382FD29E422DD9023863442A
:1004DC009B1B89B2B3FBF7F607FB163341EA0341CA
:1004EC0006FB0EF38B4208D91CEB010106F1FF3819
:1004FC0016D28B4214D9023E6144C91A46EA004610
:10050C0038E72E46284605E70646E3E61846F8E6A1
:10051C004B45A9D2B9EB020864EB0C0E0138A3E7EA
:10052C004646EAE7204694E74046D1E7D0467BE7CB
:10053C00023B614432E7304609E76444023842E743
:10054C00704700BF08B500F0BDF800F009F80020B6
:10055C0000F07AF84FF4FA6000F088F8F7E700BF83
:10056C00F0B5042083B000F00DFB2D4B2D491B681A
:10057C002D4A2E4F2E4C2F4D2F4EA1FB03139B0CAF
:10058C00136013682D4A4FF47A7000FB03F30121BA
:10059C003868136000F0FAF9684600F0EBFA23882B
:1005AC00286800936946019600F09CFA012178684E
:1005BC0000F0ECF9684600F0DDFA63886868009397
:1005CC006946019600F08EFA0121B86800F0DEF958
:1005DC00684600F0CFFAA388A86800936946019694
:1005EC0000F080FA23880BB12A68936163880BB101
:1005FC006A689361A3880BB1AA68936101214FF4D7
:10060C00401000F0C3F9684600F0B4FA0C4B0D48EA
:10061C0008226946CDE9002300F064FA03B0F0BD6E
:10062C002000002083DE1B4344000020000000203B
:10063C000C000020140000200000010140000020EC
:10064C000002000100000240022809D8054B33F8D3
:10065C0010302BB1044A52F8202051694B405361A1
:10066C00704700BF0C0000201400002038B310B4F9
:10067C00134C4FF0E02200214FF0320C322823684B
:10068C0018D932380CFB03F3536180B291611369B2
:10069C0043F001031361136903F00113012BFAD02A
:1006AC00136923F00103136191610028E6D15DF811
:1006BC00044B704703FB00F050610020E6E77047E5
:1006CC004000002010B500F00FF92048012100F087
:1006DC005DF91F4A1F4B1069012161F30200106183
:1006EC001A6E61F301021A66084600F065F900F013
:1006FC0037F90028FBD0012290211046022300F08C
:10070C00AFF90121022000F057F9192000F016F979
:10071C0001280446F9D1002000F076F9042000F0FD
:10072C0083F9042000F078F9204600F085F90220C6
:10073C0000F0B4F900F0CEF90228FBD1002000F053
:10074C007BF9BDE8104000F04FB800BF1C00400022
:10075C0000700040003C0240704700BFFEE700BF45
:10076C00FEE700BFFEE700BFFEE700BF704700BF1B
:10077C00704700BF704700BF704700BF174A184949
:10078C00D2F8883030B443F47003C2F888300B6868
:10079C0043F001030B600B689B07FCD58B68104A78
:1007AC006FF301038B60936813F00C0FC3F381019B
:1007BC00F9D1136809480B4D23F0867323F4803369
:1007CC0013604FF41F044FF0006391605560C2F842
:1007DC00A010D46030BC8360704700BF00ED00E017
:1007EC00003802400230030010B500F073F960B11C
:1007FC00022818D02348244B24499B68244AC3F36D
:10080C000313CB5CD840106010BD1F4BD3F8A02055
:10081C005204EFD5D3F8A0201A4B1E4812F4805F77
:10082C0008BF1846E7E7184A536851685368C1F384
:10083C00881C4FEA4C11B1EB0C00516864EB0404BA
:10084C00C1F3024E03F00F028101A301091A43EA1E
:10085C00906363EB0403DB0043EA5173C90011EBB3
:10086C000C0C0D4943F1000311F80E00590200FB6A
:10087C0002F200234FEA4C2041EADC51FFF7E0FC86
:10088C00B9E700BF00127A0000380240100C0008D3
:10089C0020000020006CDC02080C0008002103E0A2
:1008AC000B4B5B58435004310A480B4B42189A428D
:1008BC00F6D30A4A02E0002342F8043B084B9A4262
:1008CC00F9D3FFF75BFF00F069F9FFF73BFE7047C8
:1008DC00300C000800000020240000202400002020
:1008EC0048000020FEE7000010B412490B6843F0EA
:1008FC0001030B600B689B07FCD58B680D4A6FF3EB
:10090C0001038B60936813F00C0FC3F38101F9D1D1
:10091C001368094C23F0867323F480334FF41F00C3
:10092C00136091605460C2F8A0105DF8044BD06065
:10093C00704700BF0038024002300300030C03F183
:10094C00804303F50E3300F01F001A68012303FAED
:10095C0000F030EA02030CBF01200020704700BFFA
:10096C00094AD2F80038980307D44FF44053D2F810
:10097C000018890301D4013BF9D1034BD3F80008CB
:10098C00C0F34040704700BF00300240030C03F13D
:10099C00804303F50E3301291A6800F01F0006D0BE
:1009AC00012101FA00F022EA00001860704701FAF8
:1009BC0000F0104318607047042809D8DFE800F0F5
:1009CC00090F151B03000F4B5A6F61F300025A6796
:1009DC0070470C4B1A6861F300021A607047094BA0
:1009EC001A6861F310421A607047064B1A6861F37B
:1009FC0018621A607047034B1A6F61F300021A6792
:100A0C00704700BF00380240024B9A6860F307122F
:100A1C009A60704700380240024B9A6860F38C224F
:100A2C009A60704700380240024B9A6860F34F326C
:100A3C009A60704700380240012807D0074BD3F862
:100A4C00A4206FF30512C3F8A4207047034AD2F810
:100A5C00A43043F03003C2F8A43070470038024091
:100A6C0030B430B90C4DD5F8A04044F48054C5F8DE
:100A7C00A040094C656860F396556560606861F349
:100A8C008E106060616862F303016160626863F3F9
:100A9C001242626030BC7047003802400C4B9A68BE
:100AAC0060F301029A6000BF00BF00BF00BF00BF2F
:100ABC0000BF00BF00BF00BF00BF00BF00BF00BF32
:100ACC0000BF00BF00BF00BF00BF00BF00BF70472A
:100ADC0000380240024B9868C0F38100704700BF99
:100AEC00003802400B88002B43D02DE9F0434FF027
:100AFC00000E032601251FFA8EFC4FEA4C0213F060
:100B0C00010F06FA02F705FA0CF80EF1010E2CD0C3
:100B1C00046824EA070404608C79D0F800909440AF
:100B2C0044EA09040460446824EA080444600C792B
:100B3C00D0F8048004FA0CFC4CEA08044460846885
:100B4C0024EA07048460CC79D0F808C0944044EAC5
:100B5C000C048460C46824EA0707C76091F805C0D8
:100B6C00C4680CFA02F22243C2605B08C3D1BDE830
:100B7C00F08370474FF6FF724FF08073C0E900238B
:100B8C00704700BF4FF0E022042813690CBF43F0FC
:100B9C00040323F004031361704700BF70B50D4DBF
:100BAC000D4C641BA4100026A64209D10B4D0C4C15
:100BBC0000F018F8641BA4100026A64205D170BDE5
:100BCC0055F8043B98470136EEE755F8043B984737
:100BDC000136F2E7280C0008280C0008280C000845
:100BEC002C0C0008F8B500BFF8BC08BC9E4670473A
:0C0BFC00F8B500BFF8BC08BC9E4670476E
:100C0800010204081020000000000000000000009D
:080C18000102030406070809AC
:080C20005CF6FF7F01000000FB
:040C2800310200088D
:040C2C000D020008AD
:100C300003003000030030000300300000200040BB
:100C400000800000000C0240000C0240000C02403A
:040C500000127A0014
:04000005080008A93E
:00000001FF
