:020000040800F2
:1000000000000620011700083D080008410800080C
:1000100045080008490800084D08000800000000D5
:10002000000000000000000000000000510800086F
:100030005508000800000000590800085D08000885
:100040004917000849170008491700084917000810
:100050004917000849170008491700084917000800
:1000600049170008491700084917000849170008F0
:1000700049170008491700084917000849170008E0
:1000800049170008491700084917000849170008D0
:1000900049170008491700084917000849170008C0
:1000A00049170008491700084917000849170008B0
:1000B00049170008491700084917000849170008A0
:1000C0004917000849170008491700084917000890
:1000D0004917000849170008491700084917000880
:1000E0004917000849170008491700084917000870
:1000F0004917000849170008491700084917000860
:10010000491700084917000849170008491700084F
:10011000491700084917000849170008491700083F
:10012000491700084917000849170008491700082F
:10013000491700084917000849170008491700081F
:10014000491700084917000849170008491700080F
:100150004917000849170008000000004917000867
:1001600049170008491700080000000000000000BF
:100170004917000849170008491700080000000047
:100180000000000049170008491700084917000837
:1001900049170008000000000000000000000000F7
:1001A00000000000000000000000000049170008E7
:1001B000491700080000000049170008000000006F
:1001C000000000000000000000000000000000002F
:1001D000000000000000000049170008491700084F
:1001E000491700084917000849170008491700086F
:1001F000491700084917000849170008491700085F
:0C020000491700084917000849170008BA
:10020C0010B5054C237833B9044B13B10448AFF344
:10021C0000800123237010BD24000020000000008A
:10022C00641A000808B5034B1BB103490348AFF32C
:10023C00008008BD0000000028000020641A00089F
:10024C004FEA4102B2F1E04324BFB3F5001CDCF1EC
:10025C00FE5C0DD901F0004C4FEAC0024CEA507024
:10026C00B2F1004F40EB830008BF20F00100704753
:10027C0011F0804F21D113F13872BCBF01F0004056
:10028C00704741F480114FEA5252C2F11802C2F188
:10029C00200C10FA0CF320FA02F018BF40F0010009
:1002AC004FEAC1234FEAD32303FA0CFC40EA0C00BB
:1002BC0023FA02F34FEA4303CCE77FEA625307D1F8
:1002CC0050EA01331EBF4FF0FE4040F4400070472F
:1002DC0001F0004040F0FE4040F40000704700BFC9
:1002EC0053B94AB9002908BF00281CBF4FF0FF3191
:1002FC004FF0FF3000F074B9ADF1080C6DE904CE8D
:10030C0000F006F8DDF804E0DDE9022304B07047E4
:10031C002DE9F047089D04468E46002B4DD18A42AC
:10032C00944669D9B2FA82F252B101FA02F3C2F1DF
:10033C00200120FA01F10CFA02FC41EA030E944070
:10034C004FEA1C48210CBEFBF8F61FFA8CF708FB91
:10035C0016E341EA034306FB07F199420AD91CEB69
:10036C00030306F1FF3080F01F81994240F21C819B
:10037C00023E63445B1AA4B2B3FBF8F008FB1033E3
:10038C0044EA034400FB07F7A7420AD91CEB040418
:10039C0000F1FF3380F00A81A74240F207816444E8
:1003AC00023840EA0640E41B00261DB1D44000236D
:1003BC00C5E900433146BDE8F0878B4209D9002DD1
:1003CC0000F0EF800026C5E9000130463146BDE85B
:1003DC00F087B3FA83F6002E4AD18B4202D38242C5
:1003EC0000F2F980841A61EB030301209E46002D74
:1003FC00E0D0C5E9004EDDE702B9FFDEB2FA82F2C9
:10040C00002A40F09280A1EB0C014FEA1C471FFA26
:10041C008CFE0126200CB1FBF7F307FB131140EA0D
:10042C0001410EFB03F0884208D91CEB010103F1DA
:10043C00FF3802D2884200F2CB804346091AA4B29C
:10044C00B1FBF7F007FB101144EA01440EFB00FE70
:10045C00A64508D91CEB040400F1FF3102D2A645D5
:10046C0000F2BB800846A4EB0E0440EA03409CE774
:10047C00C6F12007B34022FA07FC4CEA030C20FA21
:10048C0007F401FA06F31C43F9404FEA1C4900FA41
:10049C0006F3B1FBF9F8200C1FFA8CFE09FB1811BE
:1004AC0040EA014108FB0EF0884202FA06F20BD931
:1004BC001CEB010108F1FF3A80F08880884240F281
:1004CC008580A8F102086144091AA4B2B1FBF9F0C5
:1004DC0009FB101144EA014100FB0EFE8E4508D9C0
:1004EC001CEB010100F1FF346CD28E456AD9023845
:1004FC00614440EA0840A0FB0294A1EB0E01A1422A
:10050C00C846A64656D353D05DB1B3EB080261EB97
:10051C000E0101FA07F722FA06F3F1401F43C5E971
:10052C00007100263146BDE8F087C2F12003D840A7
:10053C000CFA02FC21FA03F3914001434FEA1C47E9
:10054C001FFA8CFEB3FBF7F007FB10360B0C43EADB
:10055C00064300FB0EF69E4204FA02F408D91CEB8B
:10056C00030300F1FF382FD29E422DD90238634489
:10057C009B1B89B2B3FBF7F607FB163341EA034129
:10058C0006FB0EF38B4208D91CEB010106F1FF3878
:10059C0016D28B4214D9023E6144C91A46EA00466F
:1005AC0038E72E46284605E70646E3E61846F8E601
:1005BC004B45A9D2B9EB020864EB0C0E0138A3E74A
:1005CC004646EAE7204694E74046D1E7D0467BE72B
:1005DC00023B614432E7304609E76444023842E7A3
:1005EC00704700BF00B583B000F0D8F800F024F8D5
:1005FC000023022200920C490C4E0D4D0D4C1A4654
:10060C00184600F05BFA002000F0BCFA084A00968D
:10061C002B462146002000F0CDFF002000F080F892
:10062C00C82000F08FF8EEE77C1A0008A01A00082A
:10063C00841A0008881A0008F0B5042083B001F071
:10064C00CDF92D4B2D491B682D4A2E4F2E4C2F4D7D
:10065C002F4EA1FB03139B0C136013682D4A4FF410
:10066C007A7000FB03F301213868136001F0BAF8CB
:10067C00684601F0ABF92388286800936946019617
:10068C0001F05CF90121786801F0ACF8684601F0E2
:10069C009DF96388686800936946019601F04EF9EC
:1006AC000121B86801F09EF8684601F08FF9A38823
:1006BC00A86800936946019601F040F923880BB1B4
:1006CC002A68936163880BB16A689361A3880BB144
:1006DC00AA68936101214FF4401001F083F8684639
:1006EC0001F074F90C4B0D4808226946CDE9002342
:1006FC0001F024F903B0F0BD2000002083DE1B4381
:10070C0044000020000000200C00002014000020F9
:10071C000000010140000020000200010000024026
:10072C00022809D8054B33F810302BB1044A52F883
:10073C00202051694B405361704700BF0C000020D2
:10074C001400002038B310B4134C4FF0E0220021F9
:10075C004FF0320C3228236818D932380CFB03F3D3
:10076C00536180B29161136943F001031361136902
:10077C0003F00113012BFAD0136923F00103136169
:10078C0091610028E6D15DF8044B704703FB00F043
:10079C0050610020E6E770474000002010B500F0E3
:1007AC00CFFF2048012101F01DF81F4A1F4B106993
:1007BC00012161F3020010611A6E61F301021A66E5
:1007CC00084601F025F800F0F7FF0028FBD00122C5
:1007DC0090211046022301F06FF80121022001F054
:1007EC0017F8192000F0D6FF01280446F9D1002093
:1007FC0001F036F8042001F043F8042001F038F839
:10080C00204601F045F8022001F074F801F08EF852
:10081C000228FBD1002001F03BF8BDE8104000F0AD
:10082C000FBF00BF1C00400000700040003C0240A5
:10083C00704700BFFEE700BFFEE700BFFEE700BF4A
:10084C00FEE700BF704700BF704700BF704700BF96
:10085C00704700BF2DE9F04FDFF85C9299F800402B
:10086C0083B082468B469046E4B1EFF311834FF090
:10087C00200181F311880AEB4A0609EBC6060093A6
:10088C00F76A012F4FEA4A0400F0AC80022F68D0BF
:10089C00002F41D00027009B83F31188384603B00A
:1008AC00BDE8F08F7F490868C9F807000320C9F834
:1008BC00100004F0FF02C9F814007B497B48C9F80A
:1008CC0018104FF48064C9F81C00C9F8204078480F
:1008DC00C9F82820C9F82420C9F82C20C9F86010C0
:1008EC001021C9F86400C9F86810C9F87020C9F85B
:1008FC006C20C9F87420BFF35F8F6E4A92E8030036
:10090C00C9F80000A9F80410BFF35F8F202289F802
:10091C000620BFF35F8FA8E7B26A756AAA429CBF34
:10092C00316A5218013A521B9045B4D8544409EB21
:10093C00C4040AF1010A266A771B0AEB4A0AB84575
:10094C0009EBCA0980F09980D9F80400594628446B
:10095C00424601F073F8BFF35F8F4544656247462A
:10096C0099E70AF1010A0AEB4A0A756A4FEACA0AC0
:10097C000027B36AAB4203F1FF3426D9326A641BF9
:10098C00444509EB0A012346A2EB050428BF434664
:10099C009C42486828BF1C4628445946224601F010
:1009AC004DF8336A25449D422744A344A8EB040820
:1009BC0010D0BFF35F8F7562B8F1000F3FF46BAFCF
:1009CC00B36AAB4203F1FF34D8D8326A1344013B0B
:1009DC005C1BD5E7BFF35F8F00257562B8F1000F84
:1009EC00C7D158E7B76A756AAF421DD9013F7F1B63
:1009FC00366A474528BF4746721B97421ED20AF1FA
:100A0C00010303EB430309EBC303594658683A4609
:100A1C00284401F013F8BFF35F8F544409EBC40969
:100A2C003D44C9F8245036E7366A3744013F7F1BF2
:100A3C00474528BF4746721B9742E0D30AF101088D
:100A4C0008EB480809EBC8085946D8F8040001928D
:100A5C00284400F0F3FFBE1B019AD8F8040035447B
:100A6C000BEB02012A4600F0E9FFBFF35F8F544401
:100A7C0009EBC409C9F824500DE7D9F8040028443F
:100A8C0045443A465946AD1B00F0D8FFD9F804004E
:100A9C000BEB07012A4600F0D1FFBFF35F8F6562B5
:100AAC004746F8E6A81A00087C1A00080401002042
:100ABC00F4000020AC1A00084C000020F0B42B4CC1
:100ACC000E462178054621B3022D4BD8EFF3118742
:100ADC004FF0200181F3118855B92846054404EBE9
:100AEC00C504049BE36287F311880020F0BC7047B7
:100AFC00681C00EB4000C00026502044426005EB0F
:100B0C00450204EBC2026800136200239362536235
:100B1C00E4E701F0FF0716490868C4F80700032052
:100B2C002061144960614FF4806C1348A161E0614D
:100B3C00C4F820C01148A7626762E76221661021E1
:100B4C006066A1662767E7666767BFF35F8F0C492E
:100B5C0003C92060A180BFF35F8F2021A171BFF377
:100B6C005F8FB1E74FF0FF30C0E700BF4C000020B3
:100B7C00A81A00087C1A000804010020F4000020C8
:100B8C00AC1A00082DE9F0475A4C237882B0024683
:100B9C00002B38D0FF230F2A8DF8043000F2A680EA
:100BAC00554B9B5C8DF80530EFF311874FF020010E
:100BBC0081F31188E06A00F00309B9F1020F5FD0EC
:100BCC00A36A656AAB429CBF216A5B18013B5B1B45
:100BDC00012B06D84FF0FF3087F3118802B0BDE827
:100BEC00F087D4F82080454BA8EB0506022E1A702E
:100BFC0032D9E369BDF804205A53BFF35F8F023535
:100C0C0065620020E8E70320206103F0FF016061CA
:100C1C003B4B3C48A361E0614FF4806020623A4852
:100C2C00A1623A4D61620068E16223661023656639
:100C3C00C4F80700A3662167E1666167BFF35F8FA5
:100C4C00334B93E803002060A180BFF35F8F202318
:100C5C00A371BFF35F8F9DE7E069324601A9284479
:100C6C00023500F0EBFEA5EB080501ABE069991924
:100C7C002A4600F0E3FEBFF35F8F00206562ABE70E
:100C8C001E4BD4E908161A700DF1040A4FF0000837
:100C9C00A36AE069B342A1EB060503F1FF329CBFE6
:100CAC0003F1FF3252184D4528BF4D46921B954219
:100CBC0028BF1546514630442A4600F0BFFE216A33
:100CCC002E448E42AA44A9EB050906D0BFF35F8FD0
:100CDC006662B9F1000FDBD193E7BFF35F8FC4F805
:100CEC002480B9F1000F8CD00026D1E74FF0FF30F3
:100CFC0074E700BF4C000020B41A00084800002024
:100D0C007C1A000804010020A81A0008F400002036
:100D1C00AC1A00082DE9F84F1546A942DDF828B0A9
:100D2C000B9A0F4606469846C0F0BA800B464FF019
:100D3C000109B3FBF5F39D4209F10109F9D9C1454C
:100D4C0038BFC14612F0010A02D1BBF1000F72D1BB
:100D5C00F16800296DDBB268B8F1010F4FF00104A6
:100D6C0006D908F1FF38B8F1010F05FB04F4F8D8E7
:100D7C00B7FBF4F39D4205D805FB04F4B7FBF4F381
:100D8C009D42F9D9DFF82C819E4608E0002925DB2D
:100D9C00B4FBF5F3AC4221D3B7FBF3FE1C467068F1
:100DAC00531C8342BC4604FB1E770BD8BCFBF4FCE3
:100DBC00316818F80C008854F1687068B360013120
:100DCC00F1601A468242E1D131683069FFF742FD89
:100DDC00B368984259D04FF0FF33F360BAF1000F6B
:100DEC0027D0BBF1000F24D0202500245F4603E060
:100DFC00F368002B1DDBE7B1B94507F1FF3718D2BB
:100E0C00D6E90123591C914207D83268D554F268AF
:100E1C00B1600132F26072680B469A42E8D13168D7
:100E2C003069FFF717FDB36898423CD04FF0FF33A1
:100E3C00F360BDE8F88F93072CD42024CDF828B0AC
:100E4C00A3460A9C03E0F1680029F2DB6CB3A145D0
:100E5C002ED2D6E90123591C914204F1FF3408D853
:100E6C00326802F803B0F268B1600132F260726865
:100E7C000B469A42E7D131683069FFF7EBFCB36857
:100E8C009842D3D10023B360DDE70023F168B3604F
:100E9C001A467BE7B8F1000F0CBF30242024CDE7B5
:100EAC004FF001094BE7B460A2E71A46A34653E79B
:100EBC00A3464DE7C41A00082DE9F04F2DED048B25
:100ECC009DB0402393460CAACDE907230022CDE91F
:100EDC000A20DFF8D8A6DFF8D88603900C460992D2
:100EEC0014F8013BABB1252B34D0DDE90850411C83
:100EFC00A9421BD8079A13540A9A089B01329942AB
:100F0C00CDE9091215D0002A1EDB14F8013B002B89
:100F1C00E9D1002A18DD099B002B40F075821A4498
:100F2C0010461DB0BDEC048BBDE8F08FA842D7D1A4
:100F3C0001460A460B980799FFF78CFC099B9842CF
:100F4C0000F0F9814FF0FF3210461DB0BDEC048B60
:100F5C00BDE8F08F0026254614F8013BA3F12301D0
:100F6C000D2908D8DFE801F068070707070707070E
:100F7C0065076B070762A3F1300109294FF00004E4
:100F8C000BD804EB840403EB440415F8013FA3F1E4
:100F9C0030010929A4F13004F3D92E2B00F0CF81B4
:100FAC00002701E015F8013F03F0FB016829F9D097
:100FBC00252B00F0DB81463BD9B2322950D8322B9D
:100FCC004ED8DFE813F04F004D004D004D004D00A2
:100FDC004D004D004D004D004D004D004D004D009D
:100FEC004D004D004D004D004D003F004D004D009B
:100FFC004D004D004D004D004D004D004D004D007D
:10100C00850152014D004F004D004D004D004D002B
:10101C004D004D004D004D004D0017014D004D0091
:10102C00F8004D00F3004D004D003F0046F0020665
:10103C0091E746F004068EE746F008068BE746F08B
:10104C00010688E7DBF800003B46102201680430FB
:10105C00CDE90046CBF8000007A8FFF75BFE0A9A23
:10106C006C1C50E7DBF800300492073323F00703C5
:10107C0003F10801CBF80010D3E90001FFF7E0F809
:10108C0008EE100AB5EEC08AF1EE10FADDE908138D
:10109C00049A00F1C98103F1010CFCEEC87A002F0F
:1010AC0017EE909AF8EE677A08BF0627B9F1090F88
:1010BC0038EE678A40F23F8248460446632CA8FB10
:1010CC0000604FEAD000F8D8002A36DB012404EB8C
:1010DC0084046400B9FBF4F00928F8D8002608E071
:1010EC00002A2ADBA8FB04E0092C4FEAD00024D903
:1010FC000446581C8842B9FBF4FE04FB1E9909D81F
:10110C00079A1AF80E10D1540A9A089909900132CC
:10111C0003460A928B4203F1010CE1D11A4607995E
:10112C000B98FFF797FB099B984200F076814FF0E4
:10113C00FF3208990A9203F1010C8C4540F2578159
:10114C008B4200F07C814FF00009B2EE049A4E46BF
:10115C004FF0FF341A4609E0F8EE688A09F10109EC
:10116C00B94538EE688A3FF47AAF089928EE098AB7
:10117C00531CFCEEC88A8B4218EE900A00F130002A
:10118C0007D8079988540A9A08990993501C0A9011
:10119C001A468A42E0D107990B98FFF75BFB099A34
:1011AC00904212BF0A9409960022D5E7DBF80000A2
:1011BC003B460A224AE7DBF80030191DCBF8001039
:1011CC001E68002416F8010B00283FF449AFDDE936
:1011DC0008714B1CBB4200F29E80079A50540A9A2D
:1011EC00089901329942CDE9093200F09880002A21
:1011FC00E8DA35E7DBF800301E6804330F2ECBF845
:10120C00003003D933461B090F2BFCD809994FF03A
:10121C008054002708E0002A4FEA1413FFF620AF91
:10122C000F2C7FF61DAF1C46089BB6FBF4FE481C2A
:10123C00984204FB1E6609D8079B1AF80E205A54D4
:10124C000A9A089B0990013201460A929942E2D10E
:10125C000A460B980799FFF7FDFA099B98427FF411
:10126C0071AE0A9A09970021D5E7DBF80030D3F864
:10127C00009089EAE972A2EBE9720433092ACBF8EF
:10128C0000304FF0010308DD11466329A8FB020270
:10129C0003F101034FEAD202F6DCBB4238BF3B46F6
:1012AC00002C75D1B9F1000FC0F20681720700F164
:1012BC00EE8006F00302022A00F009810A22CDE931
:1012CC0000463B46494607A8FFF724FD0A9AC7E6A5
:1012DC00DDE90813DBF80040201DCBF80000581C9A
:1012EC00884208D8079A2168D1540A9A089909901B
:1012FC00013203460A928B427FF4B2AE1A4607992A
:10130C000B98FFF7A7FA099B98427FF41BAE0023BA
:10131C000A9A0993A4E6B9427FF454AF0B461A46D5
:10132C0007990B98FFF796FA099B98427FF40AAE3F
:10133C000A9A09945BE700230A9A0993E3E56B7810
:10134C00A3F13001092905F101054FF000073FF623
:10135C002BAE07EB870703EB470715F8013FA3F10B
:10136C0030010929A7F13007F3D91DE6DDE90801A1
:10137C004C1C844207D8079A53540A9A089809942B
:10138C00013221460A9281427FF46AAE0A46B6E7E0
:10139C00B9F1000F36DB700734D4B10701D5002F3B
:1013AC0080D016F0010204927FF47CAF002C3FF445
:1013BC0079AF05951D46A54216D2DDE908014A1CF8
:1013CC00824204F1FF3453D807984FF02003435462
:1013DC000A9908980992013182420A914BD000294E
:1013EC00C0F2DB80002CE6D12B46059D5AE7079A0C
:1013FC002E21D1540A9A0899CDF824C001326346A3
:10140C000A929DE6013CC8E71A4603980CA9FFF71F
:10141C0021FADDE909321A4482E50A9A08990996FB
:10142C004FF0010C00235BE6581C884216D98B4206
:10143C0000F09B8003F1010CB1EE488A2DE61A46B0
:10144C0007990B98FFF706FA099B0899984215BF64
:10145C004FF0FF3200230A92099374E6079A2D216C
:10146C00D1540A9A08990990013203460A92DEE790
:10147C008142B7D10A4607990B98FFF7EBF9099A05
:10148C0090427FF45FAD049B0A990993A7E7DDE9CD
:10149C000812501C884265D807994FF02B0C01F8A4
:1014AC0002C00A9A08990990013288420A924AD0DD
:1014BC00002AFFF6D5ADFCE6DDE90812501C884287
:1014CC00C9F100093CD807994FF02D0CE7E7002F24
:1014DC007FF4F4AEF4B1CDF810B0AB461D46A54286
:1014EC0050D2DDE908014A1C824204F1FF3413D8C2
:1014FC0007984FF0300343540A9908980992013128
:10150C0082420A910BD000294ADB002CE7D15D46C0
:10151C00DDF810B00024D1E68142F6D10A460799D5
:10152C000B98FFF797F9099A90427FF40BAD0023C3
:10153C000A990993E7E7002AFFF6FFAD0124CDE5F0
:10154C008A427FF4B6AE0A460B9807990493FFF7CC
:10155C0081F9099A049B90427FF4F4AC0022099221
:10156C000A9AA5E78A42EED0A3E61A4607990B9889
:10157C00FFF770F9099B984208D04FF0FF32089999
:10158C000A9257E75D46DDF810B097E600230A9AF9
:10159C00089909934FF0010C4EE7059D0A465FE54B
:1015AC005D460A46DDF810B05AE500BFC41A0008C3
:1015BC00CDCCCCCC0EB400B582B003AB01AA53F8A1
:1015CC00041B0193FFF778FC02B05DF804EB03B049
:1015DC00704700BF174A1849D2F8883030B443F42A
:1015EC007003C2F888300B6843F001030B600B6882
:1015FC009B07FCD58B68104A6FF301038B609368D3
:10160C0013F00C0FC3F38101F9D1136809480B4D8A
:10161C0023F0867323F4803313604FF41F044FF0D0
:10162C00006391605560C2F8A010D46030BC836038
:10163C00704700BF00ED00E00038024002300300AC
:10164C0010B500F073F960B1022818D02348244B70
:10165C0024499B68244AC3F30313CB5CD840106025
:10166C0010BD1F4BD3F8A0205204EFD5D3F8A02007
:10167C001A4B1E4812F4805F08BF1846E7E7184A59
:10168C00536851685368C1F3881C4FEA4C11B1EB95
:10169C000C00516864EB0404C1F3024E03F00F021A
:1016AC008101A301091A43EA906363EB0403DB0095
:1016BC0043EA5173C90011EB0C0C0D4943F10003C3
:1016CC0011F80E00590200FB02F200234FEA4C20E5
:1016DC0041EADC51FEF704FEB9E700BF00127A00C4
:1016EC0000380240DC1A000820000020006CDC02EC
:1016FC00D41A0008002103E00B4B5B584350043113
:10170C000A480B4B42189A42F6D30A4A02E00023CD
:10171C0042F8043B084B9A42F9D3FFF75BFF00F009
:10172C0069F9FEF75FFF7047FC1A00080000002003
:10173C00240000202400002004050020FEE7000007
:10174C0010B412490B6843F001030B600B689B0744
:10175C00FCD58B680D4A6FF301038B60936813F013
:10176C000C0FC3F38101F9D11368094C23F0867374
:10177C0023F480334FF41F00136091605460C2F85F
:10178C00A0105DF8044BD060704700BF00380240D9
:10179C0002300300030C03F1804303F50E3300F019
:1017AC001F001A68012303FA00F030EA02030CBF91
:1017BC0001200020704700BF094AD2F80038980376
:1017CC0007D44FF44053D2F80018890301D4013BDD
:1017DC00F9D1034BD3F80008C0F34040704700BF69
:1017EC0000300240030C03F1804303F50E33012952
:1017FC001A6800F01F0006D0012101FA00F022EA5D
:10180C0000001860704701FA00F010431860704730
:10181C00042809D8DFE800F0090F151B03000F4B53
:10182C005A6F61F300025A6770470C4B1A6861F3E8
:10183C0000021A607047094B1A6861F310421A6073
:10184C007047064B1A6861F318621A607047034BB5
:10185C001A6F61F300021A67704700BF003802402C
:10186C00024B9A6860F307129A6070470038024086
:10187C00024B9A6860F38C229A60704700380240E1
:10188C00024B9A6860F34F329A60704700380240FE
:10189C00012807D0074BD3F8A4206FF30512C3F827
:1018AC00A4207047034AD2F8A43043F03003C2F8A6
:1018BC00A43070470038024030B430B90C4DD5F824
:1018CC00A04044F48054C5F8A040094C656860F30E
:1018DC0096556560606861F38E106060616862F3B4
:1018EC0003016160626863F31242626030BC70474E
:1018FC00003802400C4B9A6860F301029A6000BFFA
:10190C0000BF00BF00BF00BF00BF00BF00BF00BFD3
:10191C0000BF00BF00BF00BF00BF00BF00BF00BFC3
:10192C0000BF00BF00BF704700380240024B9868F0
:10193C00C0F38100704700BF003802400B88002BB9
:10194C0043D02DE9F0434FF0000E032601251FFA7A
:10195C008EFC4FEA4C0213F0010F06FA02F705FA5F
:10196C000CF80EF1010E2CD0046824EA0704046074
:10197C008C79D0F80090944044EA090404604468DF
:10198C0024EA080444600C79D0F8048004FA0CFCB6
:10199C004CEA08044460846824EA07048460CC7927
:1019AC00D0F808C0944044EA0C048460C46824EA6B
:1019BC000707C76091F805C0C4680CFA02F222430D
:1019CC00C2605B08C3D1BDE8F08370474FF6FF726D
:1019DC004FF08073C0E90023704700BF4FF0E02246
:1019EC00042813690CBF43F0040323F004031361B0
:1019FC00704700BF70B50D4D0D4C641BA410002634
:101A0C00A64209D10B4D0C4C00F026F8641BA41017
:101A1C000026A64205D170BD55F8043B9847013607
:101A2C00EEE755F8043B98470136F2E7F41A000844
:101A3C00F41A0008F41A0008F81A00080A44914233
:101A4C0000F1FF3300D1704710B511F8014B03F8CA
:101A5C00014F9142F9D110BDF8B500BFF8BC08BCDC
:101A6C009E467047F8B500BFF8BC08BC9E46704750
:101A7C005465726D696E616C000000002020257346
:101A8C00257348656C6C6F207A7A680A0D0A257389
:101A9C00000000001B5B306D00000000525454002D
:101AAC0053454747455200003031323334353637D1
:101ABC003839414243444546303132333435363778
:101ACC0038394142434445460102040810200000C5
:101ADC0000000000000000000102030406070809D2
:081AEC0030E8FF7F010000005B
:041AF40031020008B3
:041AF8000D020008D3
:101AFC0003003000030030000300300000200040E1
:101B0C0000800000000C0240000C0240000C02405F
:041B1C0000127A0039
:0400000508001701D7
:00000001FF
